{
  "contractName": "SimpleStorage",
  "abi": [
    {
      "inputs": [
        {
          "internalType": "uint256",
          "name": "",
          "type": "uint256"
        }
      ],
      "name": "records",
      "outputs": [
        {
          "internalType": "string",
          "name": "name",
          "type": "string"
        },
        {
          "internalType": "string",
          "name": "userId",
          "type": "string"
        },
        {
          "internalType": "string",
          "name": "hash",
          "type": "string"
        },
        {
          "internalType": "string",
          "name": "userType",
          "type": "string"
        },
        {
          "internalType": "string",
          "name": "department",
          "type": "string"
        },
        {
          "internalType": "uint256",
          "name": "timeIn",
          "type": "uint256"
        },
        {
          "internalType": "uint256",
          "name": "timeOut",
          "type": "uint256"
        }
      ],
      "stateMutability": "view",
      "type": "function",
      "constant": true
    },
    {
      "inputs": [],
      "name": "storedData",
      "outputs": [
        {
          "internalType": "bytes32",
          "name": "",
          "type": "bytes32"
        }
      ],
      "stateMutability": "view",
      "type": "function",
      "constant": true
    },
    {
      "inputs": [
        {
          "internalType": "bytes32",
          "name": "x",
          "type": "bytes32"
        }
      ],
      "name": "set",
      "outputs": [],
      "stateMutability": "nonpayable",
      "type": "function"
    },
    {
      "inputs": [],
      "name": "get",
      "outputs": [
        {
          "internalType": "bytes32",
          "name": "",
          "type": "bytes32"
        }
      ],
      "stateMutability": "view",
      "type": "function",
      "constant": true
    },
    {
      "inputs": [
        {
          "internalType": "string",
          "name": "name",
          "type": "string"
        },
        {
          "internalType": "string",
          "name": "userId",
          "type": "string"
        },
        {
          "internalType": "string",
          "name": "hash",
          "type": "string"
        },
        {
          "internalType": "string",
          "name": "userType",
          "type": "string"
        },
        {
          "internalType": "string",
          "name": "department",
          "type": "string"
        }
      ],
      "name": "addRecord",
      "outputs": [],
      "stateMutability": "nonpayable",
      "type": "function"
    },
    {
      "inputs": [
        {
          "internalType": "uint256",
          "name": "index",
          "type": "uint256"
        }
      ],
      "name": "setTimeIn",
      "outputs": [],
      "stateMutability": "nonpayable",
      "type": "function"
    },
    {
      "inputs": [
        {
          "internalType": "uint256",
          "name": "index",
          "type": "uint256"
        }
      ],
      "name": "setTimeOut",
      "outputs": [],
      "stateMutability": "nonpayable",
      "type": "function"
    },
    {
      "inputs": [
        {
          "internalType": "uint256",
          "name": "index",
          "type": "uint256"
        }
      ],
      "name": "getRecord",
      "outputs": [
        {
          "internalType": "string",
          "name": "",
          "type": "string"
        },
        {
          "internalType": "string",
          "name": "",
          "type": "string"
        },
        {
          "internalType": "string",
          "name": "",
          "type": "string"
        },
        {
          "internalType": "string",
          "name": "",
          "type": "string"
        },
        {
          "internalType": "string",
          "name": "",
          "type": "string"
        },
        {
          "internalType": "uint256",
          "name": "",
          "type": "uint256"
        },
        {
          "internalType": "uint256",
          "name": "",
          "type": "uint256"
        }
      ],
      "stateMutability": "view",
      "type": "function",
      "constant": true
    },
    {
      "inputs": [],
      "name": "getRecordCount",
      "outputs": [
        {
          "internalType": "uint256",
          "name": "",
          "type": "uint256"
        }
      ],
      "stateMutability": "view",
      "type": "function",
      "constant": true
    }
  ],
  "bytecode": "0x608060405234801561001057600080fd5b50611048806100206000396000f3fe608060405234801561001057600080fd5b50600436106100935760003560e01c80636d4ce63c116100665780636d4ce63c1461013e578063bf5a0e5a1461015c578063ca267f2814610178578063d502384d14610196578063db80813f146101b257610093565b806303e9e609146100985780632a1afcd9146100ce5780632d1814f2146100ec5780633446106714610108575b600080fd5b6100b260048036038101906100ad9190610cc8565b6101ce565b6040516100c59796959493929190610da3565b60405180910390f35b6100d6610519565b6040516100e39190610d88565b60405180910390f35b61010660048036038101906101019190610bd9565b61051f565b005b610122600480360381019061011d9190610cc8565b61062d565b6040516101359796959493929190610da3565b60405180910390f35b610146610927565b6040516101539190610d88565b60405180910390f35b61017660048036038101906101719190610cc8565b610930565b005b6101806109ca565b60405161018d9190610e55565b60405180910390f35b6101b060048036038101906101ab9190610cc8565b6109d7565b005b6101cc60048036038101906101c79190610bb0565b610a71565b005b6060806060806060600080600060018981548110610215577f4e487b7100000000000000000000000000000000000000000000000000000000600052603260045260246000fd5b9060005260206000209060070201905080600001816001018260020183600301846004018560050154866006015486805461024f90610f43565b80601f016020809104026020016040519081016040528092919081815260200182805461027b90610f43565b80156102c85780601f1061029d576101008083540402835291602001916102c8565b820191906000526020600020905b8154815290600101906020018083116102ab57829003601f168201915b505050505096508580546102db90610f43565b80601f016020809104026020016040519081016040528092919081815260200182805461030790610f43565b80156103545780601f1061032957610100808354040283529160200191610354565b820191906000526020600020905b81548152906001019060200180831161033757829003601f168201915b5050505050955084805461036790610f43565b80601f016020809104026020016040519081016040528092919081815260200182805461039390610f43565b80156103e05780601f106103b5576101008083540402835291602001916103e0565b820191906000526020600020905b8154815290600101906020018083116103c357829003601f168201915b505050505094508380546103f390610f43565b80601f016020809104026020016040519081016040528092919081815260200182805461041f90610f43565b801561046c5780601f106104415761010080835404028352916020019161046c565b820191906000526020600020905b81548152906001019060200180831161044f57829003601f168201915b5050505050935082805461047f90610f43565b80601f01602080910402602001604051908101604052809291908181526020018280546104ab90610f43565b80156104f85780601f106104cd576101008083540402835291602001916104f8565b820191906000526020600020905b8154815290600101906020018083116104db57829003601f168201915b50505050509250975097509750975097509750975050919395979092949650565b60005481565b60016040518060e001604052808781526020018681526020018581526020018481526020018381526020016000815260200160008152509080600181540180825580915050600190039060005260206000209060070201600090919091909150600082015181600001908051906020019061059b929190610a7b565b5060208201518160010190805190602001906105b8929190610a7b565b5060408201518160020190805190602001906105d5929190610a7b565b5060608201518160030190805190602001906105f2929190610a7b565b50608082015181600401908051906020019061060f929190610a7b565b5060a0820151816005015560c0820151816006015550505050505050565b6001818154811061063d57600080fd5b906000526020600020906007020160009150905080600001805461066090610f43565b80601f016020809104026020016040519081016040528092919081815260200182805461068c90610f43565b80156106d95780601f106106ae576101008083540402835291602001916106d9565b820191906000526020600020905b8154815290600101906020018083116106bc57829003601f168201915b5050505050908060010180546106ee90610f43565b80601f016020809104026020016040519081016040528092919081815260200182805461071a90610f43565b80156107675780601f1061073c57610100808354040283529160200191610767565b820191906000526020600020905b81548152906001019060200180831161074a57829003601f168201915b50505050509080600201805461077c90610f43565b80601f01602080910402602001604051908101604052809291908181526020018280546107a890610f43565b80156107f55780601f106107ca576101008083540402835291602001916107f5565b820191906000526020600020905b8154815290600101906020018083116107d857829003601f168201915b50505050509080600301805461080a90610f43565b80601f016020809104026020016040519081016040528092919081815260200182805461083690610f43565b80156108835780601f1061085857610100808354040283529160200191610883565b820191906000526020600020905b81548152906001019060200180831161086657829003601f168201915b50505050509080600401805461089890610f43565b80601f01602080910402602001604051908101604052809291908181526020018280546108c490610f43565b80156109115780601f106108e657610100808354040283529160200191610911565b820191906000526020600020905b8154815290600101906020018083116108f457829003601f168201915b5050505050908060050154908060060154905087565b60008054905090565b6001805490508110610977576040517f08c379a000000000000000000000000000000000000000000000000000000000815260040161096e90610e35565b60405180910390fd5b42600182815481106109b2577f4e487b7100000000000000000000000000000000000000000000000000000000600052603260045260246000fd5b90600052602060002090600702016006018190555050565b6000600180549050905090565b6001805490508110610a1e576040517f08c379a0000000000000000000000000000000000000000000000000000000008152600401610a1590610e35565b60405180910390fd5b4260018281548110610a59577f4e487b7100000000000000000000000000000000000000000000000000000000600052603260045260246000fd5b90600052602060002090600702016005018190555050565b8060008190555050565b828054610a8790610f43565b90600052602060002090601f016020900481019282610aa95760008555610af0565b82601f10610ac257805160ff1916838001178555610af0565b82800160010185558215610af0579182015b82811115610aef578251825591602001919060010190610ad4565b5b509050610afd9190610b01565b5090565b5b80821115610b1a576000816000905550600101610b02565b5090565b6000610b31610b2c84610ea1565b610e70565b905082815260208101848484011115610b4957600080fd5b610b54848285610f01565b509392505050565b600081359050610b6b81610fe4565b92915050565b600082601f830112610b8257600080fd5b8135610b92848260208601610b1e565b91505092915050565b600081359050610baa81610ffb565b92915050565b600060208284031215610bc257600080fd5b6000610bd084828501610b5c565b91505092915050565b600080600080600060a08688031215610bf157600080fd5b600086013567ffffffffffffffff811115610c0b57600080fd5b610c1788828901610b71565b955050602086013567ffffffffffffffff811115610c3457600080fd5b610c4088828901610b71565b945050604086013567ffffffffffffffff811115610c5d57600080fd5b610c6988828901610b71565b935050606086013567ffffffffffffffff811115610c8657600080fd5b610c9288828901610b71565b925050608086013567ffffffffffffffff811115610caf57600080fd5b610cbb88828901610b71565b9150509295509295909350565b600060208284031215610cda57600080fd5b6000610ce884828501610b9b565b91505092915050565b610cfa81610eed565b82525050565b6000610d0b82610ed1565b610d158185610edc565b9350610d25818560208601610f10565b610d2e81610fd3565b840191505092915050565b6000610d46600d83610edc565b91507f496e76616c696420696e646578000000000000000000000000000000000000006000830152602082019050919050565b610d8281610ef7565b82525050565b6000602082019050610d9d6000830184610cf1565b92915050565b600060e0820190508181036000830152610dbd818a610d00565b90508181036020830152610dd18189610d00565b90508181036040830152610de58188610d00565b90508181036060830152610df98187610d00565b90508181036080830152610e0d8186610d00565b9050610e1c60a0830185610d79565b610e2960c0830184610d79565b98975050505050505050565b60006020820190508181036000830152610e4e81610d39565b9050919050565b6000602082019050610e6a6000830184610d79565b92915050565b6000604051905081810181811067ffffffffffffffff82111715610e9757610e96610fa4565b5b8060405250919050565b600067ffffffffffffffff821115610ebc57610ebb610fa4565b5b601f19601f8301169050602081019050919050565b600081519050919050565b600082825260208201905092915050565b6000819050919050565b6000819050919050565b82818337600083830152505050565b60005b83811015610f2e578082015181840152602081019050610f13565b83811115610f3d576000848401525b50505050565b60006002820490506001821680610f5b57607f821691505b60208210811415610f6f57610f6e610f75565b5b50919050565b7f4e487b7100000000000000000000000000000000000000000000000000000000600052602260045260246000fd5b7f4e487b7100000000000000000000000000000000000000000000000000000000600052604160045260246000fd5b6000601f19601f8301169050919050565b610fed81610eed565b8114610ff857600080fd5b50565b61100481610ef7565b811461100f57600080fd5b5056fea26469706673582212200505f12a05ef054fc0e32599b7ddc715e722f466475914ffa7a8472ef08feff864736f6c63430008000033",
  "immutableReferences": {},
  "source": "// SPDX-License-Identifier: MIT\r\npragma solidity ^0.8.0;\r\n\r\ncontract SimpleStorage {\r\n    // Existing single stored data\r\n    bytes32 public storedData;\r\n\r\n    function set(bytes32 x) public {\r\n        storedData = x;\r\n    }\r\n\r\n    function get() public view returns (bytes32) {\r\n        return storedData;\r\n    }\r\n\r\n    struct Record {\r\n        string name;\r\n        string userId;\r\n        string hash;\r\n        string userType; // Added userType\r\n        string department; // Added department\r\n        uint256 timeIn;\r\n        uint256 timeOut;\r\n    }\r\n\r\n    Record[] public records;\r\n\r\n    function addRecord(string memory name, string memory userId, string memory hash, string memory userType, string memory department) public {\r\n        records.push(Record(name, userId, hash, userType, department, 0, 0)); // Initialize timeIn and timeOut to 0\r\n    }\r\n\r\n    function setTimeIn(uint index) public {\r\n        require(index < records.length, \"Invalid index\");\r\n        records[index].timeIn = block.timestamp;\r\n    }\r\n\r\n    function setTimeOut(uint index) public {\r\n        require(index < records.length, \"Invalid index\");\r\n        records[index].timeOut = block.timestamp;\r\n    }\r\n\r\n    function getRecord(uint index) public view returns (string memory, string memory, string memory, string memory, string memory, uint256, uint256) {\r\n        Record storage record = records[index];\r\n        return (record.name, record.userId, record.hash, record.userType, record.department, record.timeIn, record.timeOut);\r\n    }\r\n\r\n    function getRecordCount() public view returns (uint) {\r\n        return records.length;\r\n    }\r\n}\r\n",
  "sourcePath": "C:\\Users\\tapis\\Desktop\\emtech-blockchain-master\\contracts\\SimpleStorage.sol",
  "compiler": {
    "name": "solc",
    "version": "0.8.0+commit.c7dfd78e.Emscripten.clang"
  },
  "schemaVersion": "3.4.16",
  "updatedAt": "2024-06-10T01:21:04.089Z",
  "networkType": "ethereum",
  "devdoc": {
    "kind": "dev",
    "methods": {},
    "version": 1
  },
  "userdoc": {
    "kind": "user",
    "methods": {},
    "version": 1
  }
}